:10087200556172742073656E642074657374200D03
:0F0882000A00746573742075617274200D0A008A
:03002300020800D0
:10080000C0E0C0D075D000C000C007309904C299C4
:10081000C20030980FC298AF090509740A2FF8A6D4
:0D0820009953090FD007D000D0D0D0E0329E
:1008AA00759850E4F589758BE8758DFFD28E758E33
:0808BA0040F509F508C2002217
:0808CE002000FDD2008F9922E9
:10082D008B1A8A1B891CAB1AAA1BA91C1208916072
:10083D0013051CE51C7002051B14F9120891FF121B
:05084D0008CE80E2224C
:10085200E4F5B2F5B11208AAD2ACD2AF7BFF7A08A6
:10086200797212082D7BFF7A08798412082D80F59F
:030000000208C231
:0C08C200787FE4F6D8FD75812002085212
:10089100BB010689828A83E0225002E722BBFE0265
:0908A100E32289828A83E4932298
:00000001FF
