:1008D800556172742073656E642074657374200D9D
:1008E8000A00495220636F6465203A00737461728C
:1008F800742070726F6772616D202D30352D0D0A6E
:100908000070726F6772616D20646F6E65210D0AE9
:100918000073746172742070726F6772616D202D3C
:1009280035352D200D0A0073746172742070726F52
:100938006772616D202D61612D0D0A0073746172FB
:100948007420726561643A000D0A0065726173650E
:04095800200D0A0064
:100ACD0053070FEFD39409EF50042430FF2224373E
:020ADD00FF22F6
:03002300020A0CC2
:100A0C00C0E0C0D075D000C000C007309904C299B6
:100A1C00C20330980FC298AF270527742A2FF8A667
:0D0A2C009953270FD007D000D0D0D0E03272
:100AA200759850E4F589758BE8758DFFD28E758E39
:080AB20040F527F526C20322DE
:040AFC00FF120ACD0E
:080B00002003FDD2038F9922AE
:0D09DA007FFF7E0F120A557BFF7A09790915
:1009E7008B088A09890AAB08AA09A90A120A896029
:1009F70013050AE50A7002050914F9120A89FF129C
:050A07000B0080E2225B
:0D0AEF00E4F5C7F5C5F5C675C380F5C42252
:100A390075C78075F50C75C5018FC4EEFF8FC37539
:0B0A4900C65A75C6A500AFC2120AEF26
:010A5400227F
:100A550075C78075F50C75C5028FC4EEFF8FC38D04
:0B0A6500C275C65A75C6A500020AEF54
:100A700075C78075F50C75C5038FC4EEFF8FC37500
:090A8000C65A75C6A500020AEF72
:10080000E4F5B2F5B1120ADF120AA2D2ACD2AF7B84
:10081000FF7A0879D81209E73001FDC2017BFF7A1F
:100820000879EA1209E7E524C4540F120AFCAF2440
:10083000120ACD120B00E524B44613C2017BFF7AE5
:100840000879F41209E77D051209DAE4F524E524B4
:10085000B44313C2017BFF7A0979191209E77D5568
:100860001209DAE4F524E524B44013C2017BFF7ACF
:1008700009792F1209E77DAA1209DAE4F524E524A3
:1008800064447036C2017BFF7A0979441209E77F1C
:10089000FF7E0F120A39EF7804A2E713D8FB120A81
:1008A000FC7FFF7E0F120A39120ACD120B007BFF6C
:1008B0007A0979501209E7E4F524E52464456003D8
:1008C000020818C2017BFF7A0979531209E77FFFFA
:0808D0007E0F120A70020818E5
:10095C000521A20492D5A2CC920430D57020046D4E
:10096C00AF21E4F521EFD394784003C20222EFC308
:10097C00944D400BEF94634054D2027525202230E5
:10098C00024BEFD394184003C20222E522C313F5A5
:10099C0022EFC3940D40034322801525E525701EDC
:1009AC00C202E522F465237024E528B4FF08E5298A
:1009BC007004C2008002D200852324D20122E525D6
:0D09CC0054077009852829852328852223DA
:0109D90022FB
:100ADF00E4F589758CFF758A8DD2A9D28CD2AF229D
:03000B00020ABA2C
:100ABA00C0E0C0D075D000C00712095CD007D0D002
:030ACA00D0E03247
:03000000020B08E8
:0C0B0800787FE4F6D8FD75813902080002
:100A8900BB010689828A83E0225002E722BBFE026B
:090A9900E32289828A83E493229E
:00000001FF
