:10094000556172742073656E642074657374200D34
:070950000A006861766500F2
:030023000208BD13
:1008BD00C0E0C0D075D000C000C007309904C29907
:1008CD00C20330980FC298AF270527742A2FF8A6B8
:0D08DD009953270FD007D000D0D0D0E032C3
:10092800759850E4F589758BE8758DFFD28E758EB4
:0809380040F527F526C2032259
:080998002003FDD2038F992218
:1008EA008B088A09890AAB08AA09A90A12090F60A2
:1008FA0013050AE50A7002050914F912090FFF1215
:05090A00099880E222C3
:10087E00E4F5B2F5B112097C120928D2ACD2AF7BE5
:10088E00FF7A0979401208EA3001FDC2017BFF7A36
:10089E000979521208EAE524C4540FFF12096A12AC
:0F08AE000998AF2412096A120998E4F52480D939
:10096A0053070FEFD39409EF50042430FF222437A2
:02097A00FF225A
:100800000521A20492D5A2CC920430D57020046DAB
:10081000AF21E4F521EFD394784003C20222EFC365
:10082000944D400BEF94634054D202752520223042
:10083000024BEFD394184003C20222E522C313F502
:1008400022EFC3940D40034322801525E525701E39
:10085000C202E522F465237024E528B4FF08E529E7
:100860007004C2008002D200852324D20122E52533
:0D0870005407700985282985232885222337
:01087D002258
:10097C00E4F589758CFF758A8DD2A9D28CD2AF2201
:03000B0002095790
:10095700C0E0C0D075D000C007120800D007D0D0C3
:03096700D0E032AB
:0300000002098C66
:0C098C00787FE4F6D8FD75813902087E02
:10090F00BB010689828A83E0225002E722BBFE02E6
:09091F00E32289828A83E4932219
:00000001FF
