:0809E2007F0A7EB7DEFEDFFC98
:0109EA0022EA
:0709AC00D2B11209B3C2B180
:0809B3007F027EBDDEFEDFFCC9
:0109BB002219
:10097700E4F5CAF5C9F5B2F5B1C2B1D204F50DC2B5
:0209870000224C
:0A09D800C2B31209E2D2B30209E231
:060945007D017F587E02D7
:10094B00AB07AA06EC4D24FF92B2EB4A600A1209E0
:09095B00D8EB1B70F51A80F222A2
:1009890020B00EC2B2C2B31209E2D2B31209E28098
:02099900EF224B
:10099B00A90DE9D3940040087C001209451980F297
:0109AB002229
:10087E00E4FDFC1209AC0DBD00010CE4B505F4EC71
:10088E00B410F0E4FCFDC2B11209AE0DBD00010CB6
:10089E00E4B505F2ECB404EEE4FCFD1209AC0DBDBA
:1008AE0000010CE4B505F4ECB404F0E4FCFDC2B1B7
:1008BE001209AE0DBD00010CE4B505F2ECB402EE6A
:1008CE00E4FCFD1209AC0DBD00010CE4B505F4EC21
:0308DE00B404F06F
:0108E10022F4
:1008E2001209BC120977300249E50BB4460CE4F553
:1008F2000BC202D20012087E80333000353002FA79
:10090200E50BB4430BE4F50BFC120945C202050DDD
:10091200E50BB4400CE4F50BFDFC120947C20215CD
:100922000DE50BB446D4E4F50BC202C200120989EC
:1009320080C820CD0912098912099B30CDFD120908
:030942008980A306
:100800000508A20592D5A2CC920530D57020056DC1
:10081000AF08E4F508EFD394784003C20322EFC396
:10082000944D400BEF94634054D203750C2022305A
:10083000034BEFD394184003C20322E509C313F519
:1008400009EFC3940D4003430980150CE50C701E9D
:10085000C203E509F4650A7024E50EB4FF08E50F4C
:100860007004C2018002D201850A0BD20222E50C7B
:0D08700054077009850E0F850A0E85090AD0
:01087D002258
:1009BC00E4F589758CFF758A83D2A9D28CD2AF22CB
:03000B0002096483
:10096400C0E0C0D075D000C007120800D007D0D0B6
:03097400D0E0329E
:030000000209CC26
:0C09CC00787FE4F6D8FD7581200208E277
:00000001FF
