:08096E007F0A7EB7DEFEDFFC0C
:01097600225E
:08097700C2B1D204750F0A227F
:0A096400C2B312096ED2B302096E8D
:0808A8007D017C007F587E02F7
:1008B000AB07AA06EC4D24FF92B2EB4A600A12097C
:0908C00064EB1B70F51A80F222B2
:1008F70030B00EC2B2C2B312096ED2B312096E8003
:02090700EF22DD
:0E093B00A90FE9D3940040061208A81980F411
:01094900228B
:1008C90012091B12097730010AE50BB40503120856
:0B08D900A8C20130B5F01208F780EB58
:1009090053070FEFD39409EF50042430FF22243703
:02091900FF22BB
:100800000508A20392D5A2B4920330D57020036DDF
:10081000AF08E4F508EFD394784003C20222EFC397
:10082000944D400BEF94634054D202750C2022305B
:10083000024BEFD394184003C20222E509C313F51B
:1008400009EFC3940D4003430980150CE50C701E9D
:10085000C202E509F4650A7024E50DB4FF08E50E4F
:100860007004C2008002D200850A0BD20122E50C7E
:0D08700054077009850D0E850A0D85090AD3
:01087D002258
:10091B00E4F589758CFF758A83D2A9D28CD2AF226C
:03000B000208E404
:1008E400C0E0C0D075D000C007120800D007D0D037
:0308F400D0E0321F
:0D094A007F587E00EF1F70011E144E70F7E5
:01095700227D
:02087E00AD07C4
:10088000C2AFC28112094AE4FCED30E004D281809B
:1008900002C281EDC313FD12094A0CBC08EBD281E0
:0808A000D2AF12094A02094A15
:10092B008F828E83E493FF600612087EA380F522EC
:030000000209589A
:0C095800787FE4F6D8FD7581200208C904
:00000001FF
