:080960007F0A7EB7DEFEDFFC1A
:01096800226C
:0A094C00C2B1D204E4F50DC200228E
:0A095600C2B3120960D2B3020960B7
:0608DB007D017F587E0242
:1008E100AB07AA06EC4D24FF92B2EB4A600A12094B
:0908F10056EB1B70F51A80F2228F
:10090D0020B00EC2B2C2B3120960D2B31209608018
:02091D00EF22C7
:10091F00A90DE9D3940040087C001208DB1980F27E
:01092F0022A5
:10087E0012093012094C300246E50BB44609E4F574
:10088E000BC202D20080333000353002FAE50BB4D1
:10089E00430BE4F50BFC1208DBC202050DE50BB4AD
:1008AE00400CE4F50BFDFC1208DDC202150DE50B44
:1008BE00B446D4E4F50BC202C20012090D80C82062
:0D08CE00B50612091F30B5FD12090D80A9F5
:100800000508A20592D5A2B4920530D57020056DD9
:10081000AF08E4F508EFD394784003C20322EFC396
:10082000944D400BEF94634054D203750C2022305A
:10083000034BEFD394184003C20322E509C313F519
:1008400009EFC3940D4003430980150CE50C701E9D
:10085000C203E509F4650A7024E50EB4FF08E50F4C
:100860007004C2018002D201850A0BD20222E50C7B
:0D08700054077009850E0F850A0E85090AD0
:01087D002258
:10093000E4F589758CFF758A83D2A9D28CD2AF2257
:03000B000208FAEE
:1008FA00C0E0C0D075D000C007120800D007D0D021
:03090A00D0E03208
:03000000020940B2
:0C094000787FE4F6D8FD75812002087E67
:00000001FF
