:08096B007F0A7EB7DEFEDFFC0F
:010973002261
:10091000E4F5CAF5C9F5B2F5B1C2B1D204F50DC21C
:020920000022B3
:0A096100C2B312096BD2B302096B96
:0608DE007D017F587E023F
:1008E400AB07AA06EC4D24FF92B2EB4A600A120948
:0908F40061EB1B70F51A80F22281
:1009220020B00EC2B2C2B312096BD2B312096B80ED
:02093200EF22B2
:10093400A90DE9D3940040087C001208DE1980F266
:010944002290
:10087E00120945120910300246E50BB44609E4F59B
:10088E000BC202D20080333000353002FAE50BB4D1
:10089E00430BE4F50BFC1208DEC202050DE50BB4AA
:1008AE00400CE4F50BFDFC1208E0C202150DE50B41
:1008BE00B446D4E4F50BC202C20012092280C8204D
:1008CE00CD0912092212093430CDFD12092280A65B
:100800000508A20592D5A2CC920530D57020056DC1
:10081000AF08E4F508EFD394784003C20322EFC396
:10082000944D400BEF94634054D203750C2022305A
:10083000034BEFD394184003C20322E509C313F519
:1008400009EFC3940D4003430980150CE50C701E9D
:10085000C203E509F4650A7024E50EB4FF08E50F4C
:100860007004C2018002D201850A0BD20222E50C7B
:0D08700054077009850E0F850A0E85090AD0
:01087D002258
:10094500E4F589758CFF758A83D2A9D28CD2AF2242
:03000B000208FDEB
:1008FD00C0E0C0D075D000C007120800D007D0D01E
:03090D00D0E03205
:030000000209559D
:0C095500787FE4F6D8FD75812002087E52
:00000001FF
