:080AB9007F0A7EB7DEFEDFFCC0
:010AC1002212
:070A7600D2B1120A7DC2B1EA
:080A7D007F027EBDDEFEDFFCFE
:010A8500224E
:100A0F00E4FDFC120A760DBD00010CE4B505F4EC13
:050A1F00B410F0D2B19B
:010A240022AF
:100A3B00E4FDFC120A760DBD00010CE4B505F4ECE7
:030A4B00B404F000
:010A4E002285
:10091800E4FDFCC2B1120A780DBD00010CE4B50576
:10092800F2ECB404EEE4FCFD120A760DBD00010CF5
:10093800E4B505F4ECB404F0E4FCFDC2B1120A78A5
:100948000DBD00010CE4B505F2ECB402EEE4FCFDCB
:10095800120A760DBD00010CE4B505F4ECB404F000
:02096800D2B10A
:01096A00226A
:0D0A9600E4F5C7F5C5F5C675C380F5C422AB
:1009BF0075C78075F50C75C5018FC4EEFF8FC375B4
:0B09CF00C65A75C6A500AFC2120A96FA
:0109DA0022FA
:1009DB0075C78075F50C75C5028FC4EEFF8FC38D7F
:0B09EB00C275C65A75C6A500020A9628
:1009F60075C78075F50C75C5038FC4EEFF8FC3757B
:090A0600C65A75C6A500020A9645
:100A4F00E4F5CAF5C9F5B2F5B1D2B1D204F50DF599
:040A5F000EC20022A1
:0A0AAF00C2B3120AB9D2B3020AB9A9
:06099E007D017F587E027E
:1009A400AB07AA06EC4D24FF92B2C2B1EB4A600A2F
:0B09B400120AAFEB1B70F51A80F22254
:100A2500C2B120B00EC2B2C2B3120AB9D2B3120A11
:060A3500B980EFD2B122EE
:10096B00D2B2C2B1120A3B7FFF7E0F1209BFEF3327
:10097B0095E08F82F583D3E5829400E583648094C0
:10098B0080400F7C0012099EE582158270E815836A
:02099B0080E4F6
:01099D002237
:10080000120A86120A4F30027BE50BB4460DE4F55E
:100810000BC202D200120918120A25300066C2B1BA
:100820003002F8E50BB44311E4F50BFC12099EC24B
:1008300002050EE50E7002050DE50BB44020E4F54F
:100840000BFDFC1209A0C202E50E150E7002150D7B
:10085000C3E50D648094805005E4F50DF50EE50BBD
:10086000B446B8E4F50BC202C2007FFF7E0F120946
:10087000F6120A0FAD0E7FFF7E0F1209DB120A255A
:10088000D2B1809720CD0D120A2512096B20CD041C
:0A089000D2B180F9120A2502080611
:10089A000508A20592D5A2CC920530D57020056D27
:1008AA00AF08E4F508EFD394784003C20322EFC3FC
:1008BA00944D400BEF94634054D203750C202230C0
:1008CA00034BEFD394184003C20322E509C313F57F
:1008DA0009EFC3940D4003430980150CE50C701E03
:1008EA00C203E509F4650A7024E50FB4FF08E510B0
:1008FA007004C2018002D201850A0BD20222E50CE1
:0D090A0054077009850F10850A0F85090A32
:0109170022BD
:100A8600E4F589758CFF758A83D2A9D28CD2AF2200
:03000B00020A6383
:100A6300C0E0C0D075D000C00712089AD007D0D01C
:030A7300D0E0329E
:03000000020AA34E
:0C0AA300787FE4F6D8FD75812002080081
:00000001FF
